{"abi":[{"type":"fallback","stateMutability":"payable"},{"type":"receive","stateMutability":"payable"},{"type":"function","name":"accountId","inputs":[],"outputs":[{"name":"","type":"string","internalType":"string"}],"stateMutability":"view"},{"type":"function","name":"entryPoint","inputs":[],"outputs":[{"name":"","type":"address","internalType":"address"}],"stateMutability":"view"},{"type":"function","name":"execute","inputs":[{"name":"mode","type":"bytes32","internalType":"ModeCode"},{"name":"executionCalldata","type":"bytes","internalType":"bytes"}],"outputs":[],"stateMutability":"payable"},{"type":"function","name":"executeFromExecutor","inputs":[{"name":"mode","type":"bytes32","internalType":"ModeCode"},{"name":"executionCalldata","type":"bytes","internalType":"bytes"}],"outputs":[{"name":"returnData","type":"bytes[]","internalType":"bytes[]"}],"stateMutability":"payable"},{"type":"function","name":"executeUserOp","inputs":[{"name":"userOp","type":"tuple","internalType":"struct PackedUserOperation","components":[{"name":"sender","type":"address","internalType":"address"},{"name":"nonce","type":"uint256","internalType":"uint256"},{"name":"initCode","type":"bytes","internalType":"bytes"},{"name":"callData","type":"bytes","internalType":"bytes"},{"name":"accountGasLimits","type":"bytes32","internalType":"bytes32"},{"name":"preVerificationGas","type":"uint256","internalType":"uint256"},{"name":"gasFees","type":"bytes32","internalType":"bytes32"},{"name":"paymasterAndData","type":"bytes","internalType":"bytes"},{"name":"signature","type":"bytes","internalType":"bytes"}]},{"name":"userOpHash","type":"bytes32","internalType":"bytes32"}],"outputs":[],"stateMutability":"payable"},{"type":"function","name":"getActiveFallbackHandler","inputs":[{"name":"functionSig","type":"bytes4","internalType":"bytes4"}],"outputs":[{"name":"","type":"tuple","internalType":"struct ModuleManager.FallbackHandler","components":[{"name":"handler","type":"address","internalType":"address"},{"name":"calltype","type":"bytes1","internalType":"CallType"}]}],"stateMutability":"view"},{"type":"function","name":"getExecutorsPaginated","inputs":[{"name":"cursor","type":"address","internalType":"address"},{"name":"size","type":"uint256","internalType":"uint256"}],"outputs":[{"name":"array","type":"address[]","internalType":"address[]"},{"name":"next","type":"address","internalType":"address"}],"stateMutability":"view"},{"type":"function","name":"getValidatorsPaginated","inputs":[{"name":"cursor","type":"address","internalType":"address"},{"name":"size","type":"uint256","internalType":"uint256"}],"outputs":[{"name":"array","type":"address[]","internalType":"address[]"},{"name":"next","type":"address","internalType":"address"}],"stateMutability":"view"},{"type":"function","name":"initializeAccount","inputs":[{"name":"data","type":"bytes","internalType":"bytes"}],"outputs":[],"stateMutability":"payable"},{"type":"function","name":"installModule","inputs":[{"name":"moduleTypeId","type":"uint256","internalType":"uint256"},{"name":"module","type":"address","internalType":"address"},{"name":"initData","type":"bytes","internalType":"bytes"}],"outputs":[],"stateMutability":"payable"},{"type":"function","name":"isModuleInstalled","inputs":[{"name":"moduleTypeId","type":"uint256","internalType":"uint256"},{"name":"module","type":"address","internalType":"address"},{"name":"additionalContext","type":"bytes","internalType":"bytes"}],"outputs":[{"name":"isInstalled","type":"bool","internalType":"bool"}],"stateMutability":"view"},{"type":"function","name":"isValidSignature","inputs":[{"name":"hash","type":"bytes32","internalType":"bytes32"},{"name":"data","type":"bytes","internalType":"bytes"}],"outputs":[{"name":"","type":"bytes4","internalType":"bytes4"}],"stateMutability":"view"},{"type":"function","name":"supportsExecutionMode","inputs":[{"name":"mode","type":"bytes32","internalType":"ModeCode"}],"outputs":[{"name":"","type":"bool","internalType":"bool"}],"stateMutability":"view"},{"type":"function","name":"supportsModule","inputs":[{"name":"modulTypeId","type":"uint256","internalType":"uint256"}],"outputs":[{"name":"","type":"bool","internalType":"bool"}],"stateMutability":"view"},{"type":"function","name":"uninstallModule","inputs":[{"name":"moduleTypeId","type":"uint256","internalType":"uint256"},{"name":"module","type":"address","internalType":"address"},{"name":"deInitData","type":"bytes","internalType":"bytes"}],"outputs":[],"stateMutability":"payable"},{"type":"function","name":"validateUserOp","inputs":[{"name":"userOp","type":"tuple","internalType":"struct PackedUserOperation","components":[{"name":"sender","type":"address","internalType":"address"},{"name":"nonce","type":"uint256","internalType":"uint256"},{"name":"initCode","type":"bytes","internalType":"bytes"},{"name":"callData","type":"bytes","internalType":"bytes"},{"name":"accountGasLimits","type":"bytes32","internalType":"bytes32"},{"name":"preVerificationGas","type":"uint256","internalType":"uint256"},{"name":"gasFees","type":"bytes32","internalType":"bytes32"},{"name":"paymasterAndData","type":"bytes","internalType":"bytes"},{"name":"signature","type":"bytes","internalType":"bytes"}]},{"name":"userOpHash","type":"bytes32","internalType":"bytes32"},{"name":"missingAccountFunds","type":"uint256","internalType":"uint256"}],"outputs":[{"name":"validSignature","type":"uint256","internalType":"uint256"}],"stateMutability":"payable"},{"type":"event","name":"ModuleInstalled","inputs":[{"name":"moduleTypeId","type":"uint256","indexed":false,"internalType":"uint256"},{"name":"module","type":"address","indexed":false,"internalType":"address"}],"anonymous":false},{"type":"event","name":"ModuleUninstalled","inputs":[{"name":"moduleTypeId","type":"uint256","indexed":false,"internalType":"uint256"},{"name":"module","type":"address","indexed":false,"internalType":"address"}],"anonymous":false},{"type":"event","name":"TryExecuteUnsuccessful","inputs":[{"name":"batchExecutionindex","type":"uint256","indexed":false,"internalType":"uint256"},{"name":"result","type":"bytes","indexed":false,"internalType":"bytes"}],"anonymous":false},{"type":"error","name":"AccountAccessUnauthorized","inputs":[]},{"type":"error","name":"AccountInitializationFailed","inputs":[]},{"type":"error","name":"CannotRemoveLastValidator","inputs":[]},{"type":"error","name":"ExecutionFailed","inputs":[]},{"type":"error","name":"InvalidModule","inputs":[{"name":"module","type":"address","internalType":"address"}]},{"type":"error","name":"LinkedList_AlreadyInitialized","inputs":[]},{"type":"error","name":"LinkedList_EntryAlreadyInList","inputs":[{"name":"entry","type":"address","internalType":"address"}]},{"type":"error","name":"LinkedList_InvalidEntry","inputs":[{"name":"entry","type":"address","internalType":"address"}]},{"type":"error","name":"LinkedList_InvalidPage","inputs":[]},{"type":"error","name":"MismatchModuleTypeId","inputs":[{"name":"moduleTypeId","type":"uint256","internalType":"uint256"}]},{"type":"error","name":"NoFallbackHandler","inputs":[{"name":"selector","type":"bytes4","internalType":"bytes4"}]},{"type":"error","name":"UnsupportedCallType","inputs":[{"name":"callType","type":"bytes1","internalType":"CallType"}]},{"type":"error","name":"UnsupportedExecType","inputs":[{"name":"execType","type":"bytes1","internalType":"ExecType"}]},{"type":"error","name":"UnsupportedModuleType","inputs":[{"name":"moduleTypeId","type":"uint256","internalType":"uint256"}]}],"bytecode":{"object":"0x6080604052348015600f57600080fd5b5061215d8061001f6000396000f3fe6080604052600436106100f75760003560e01c8063a71763a81161008a578063e9ae5c5311610059578063e9ae5c531461040b578063ea5f61d01461041e578063eac9b20d1461043e578063f2dc691d146104f4576100fe565b8063a71763a81461038d578063b0d691fe146103a0578063d03c7914146103cb578063d691c964146103eb576100fe565b80635faac46b116100c65780635faac46b146102ed5780638dd7712f1461031b5780639517e29f1461032e5780639cfd7cff14610341576100fe565b8063112d3a7d1461024b5780631626ba7e1461028057806319822f7c146102b95780634b6a1419146102da576100fe565b366100fe57005b60003560e01c63bc197c81811463f23a6e6182141763150b7a028214171561012a57806020526020603cf35b50600080356001600160e01b03191681526000805160206120c88339815191526020526040902080546001600160a01b03811690600160a01b900460f81b8161019957604051632464e76d60e11b81526001600160e01b03196000351660048201526024015b60405180910390fd5b6101a781607f60f91b610514565b156101fb5760408051368101909152366000823760408051601481019091523360601b90526000803660140183865afa90506101e93d60408051918201905290565b3d6000823e816101f7573d81fd5b3d81f35b610206816000610514565b156102495760408051368101909152366000823760408051601481019091523360601b9052600080366014018382875af190506101e93d60408051918201905290565b005b34801561025757600080fd5b5061026b6102663660046118dc565b61052b565b60405190151581526020015b60405180910390f35b34801561028c57600080fd5b506102a061029b366004611937565b6105b0565b6040516001600160e01b03199091168152602001610277565b6102cc6102c736600461199b565b610686565b604051908152602001610277565b6102496102e83660046119e8565b61076c565b3480156102f957600080fd5b5061030d610308366004611a29565b61080a565b604051610277929190611a55565b610249610329366004611ab8565b610835565b61024961033c3660046118dc565b610905565b34801561034d57600080fd5b50604080518082018252601781527f754d53412e73696d706c652f6e6f486f6f6b2e76302e31000000000000000000602082015290516102779190611b4c565b61024961039b3660046118dc565b610a6a565b3480156103ac57600080fd5b506040516f71727de22e5e9d8baf0edac6f37da0328152602001610277565b3480156103d757600080fd5b5061026b6103e6366004611b5f565b610b20565b6103fe6103f9366004611937565b610b61565b6040516102779190611b78565b610249610419366004611937565b610c83565b34801561042a57600080fd5b5061030d610439366004611a29565b610d2d565b34801561044a57600080fd5b506104c6610459366004611bf3565b604080518082018252600080825260209182018190526001600160e01b03199390931683526000805160206120c88339815191528152918190208151808301909252546001600160a01b0381168252600160a01b900460f81b6001600160f81b0319169181019190915290565b6040805182516001600160a01b031681526020928301516001600160f81b0319169281019290925201610277565b34801561050057600080fd5b5061026b61050f366004611b5f565b610d4b565b6001600160f81b0319828116908216145b92915050565b6000600185036105455761053e84610d8a565b90506105a8565b600285036105565761053e84610dac565b600385036105a45761053e61056d83850185611bf3565b6001600160e01b03191660009081526000805160206120c883398151915260205260409020546001600160a01b0386811691161490565b5060005b949350505050565b6000806105c06014828587611c10565b6105c991611c3a565b60601c90506105d781610d8a565b6105ff57604051635c93ff2f60e11b81526001600160a01b0382166004820152602401610190565b6001600160a01b03811663f551e2ee338761061d876014818b611c10565b6040518563ffffffff1660e01b815260040161063c9493929190611cb0565b602060405180830381865afa158015610659573d6000803e3d6000fd5b505050506040513d601f19601f8201168201806040525081019061067d9190611ce2565b95945050505050565b6000336f71727de22e5e9d8baf0edac6f37da032146106b857604051635629665f60e11b815260040160405180910390fd5b816020850135606081901c906106cd82610d8a565b6106dc57600193505050610752565b604051639700320360e01b81526001600160a01b0383169063970032039061070a908a908a90600401611d44565b6020604051808303816000875af1158015610729573d6000803e3d6000fd5b505050506040513d601f19601f8201168201806040525081019061074d9190611e48565b935050505b80156107645760003860003884335af1505b509392505050565b610774610dc7565b60008061078383850185611e77565b915091506000826001600160a01b0316826040516107a19190611f40565b600060405180830381855af49150503d80600081146107dc576040519150601f19603f3d011682016040523d82523d6000602084013e6107e1565b606091505b505090508061080357604051631b79777760e11b815260040160405180910390fd5b5050505050565b60606000600080516020612108833981519152610828818686610df9565b92509250505b9250929050565b336f71727de22e5e9d8baf0edac6f37da0321461086557604051635629665f60e11b815260040160405180910390fd5b3660006108756060850185611f5c565b610883916004908290611c10565b915091506000306001600160a01b031683836040516108a3929190611fa2565b600060405180830381855af49150503d80600081146108de576040519150601f19603f3d011682016040523d82523d6000602084013e6108e3565b606091505b505090508061080357604051632b3f6d1160e21b815260040160405180910390fd5b336f71727de22e5e9d8baf0edac6f37da032148061092257503330145b61093f57604051635629665f60e11b815260040160405180910390fd5b60405163ecd0596160e01b8152600481018590526001600160a01b0384169063ecd0596190602401602060405180830381865afa158015610984573d6000803e3d6000fd5b505050506040513d601f19601f820116820180604052508101906109a89190611fb2565b6109c8576040516369c9a24560e11b815260048101859052602401610190565b600184036109e0576109db838383610fa5565b610a22565b600284036109f3576109db838383611024565b60038403610a06576109db83838361103d565b60405163041c38b360e41b815260048101859052602401610190565b604080518581526001600160a01b03851660208201527fd21d0b289f126c4b473ea641963e766833c2f13866e4ff480abd787c100ef12391015b60405180910390a150505050565b336f71727de22e5e9d8baf0edac6f37da0321480610a8757503330145b610aa457604051635629665f60e11b815260040160405180910390fd5b60018403610abc57610ab78383836111ee565b610ae2565b60028403610acf57610ab7838383611248565b60038403610a0657610ab7838383611266565b604080518581526001600160a01b03851660208201527f341347516a9de374859dfda710fa4828b2d48cb57d4fbe4c1149612b8e02276e9101610a5c565b600081610b3181600160f81b610514565b15610b3f5750600192915050565b610b4a816000610514565b15610b585750600192915050565b50600092915050565b60606000805160206120e8833981519152610b7c81336114a6565b610b9b57604051635c93ff2f60e11b8152336004820152602401610190565b84610baa81600160f81b610514565b15610bcc5784358501602081019035610bc382826114e0565b94505050610c7a565b610bd7816000610514565b15610c5557600080366000610bec89896115b8565b6040805160018082528183019092529498509296509094509250816020015b6060815260200190600190039081610c0b579050509650610c2e84848484611609565b87600081518110610c4157610c41611fd4565b602002602001018190525050505050610c7a565b604051632e5bf3f960e21b81526001600160f81b031982166004820152602401610190565b50509392505050565b336f71727de22e5e9d8baf0edac6f37da0321480610ca057503330145b610cbd57604051635629665f60e11b815260040160405180910390fd5b82610ccc81600160f81b610514565b15610ced5782358301602081019035610ce582826114e0565b505050610d27565b610cf8816000610514565b15610c5557600080366000610d0d87876115b8565b9350935093509350610d2184848484611609565b50505050505b50505050565b606060006000805160206120e8833981519152610828818686610df9565b600060018203610d5d57506001919050565b60028203610d6d57506001919050565b60038203610d7d57506001919050565b506000919050565b919050565b6000600080516020612108833981519152610da581846114a6565b9392505050565b60006000805160206120e8833981519152610da581846114a6565b600080516020612108833981519152610ded6000805160206120e883398151915261163f565b610df68161163f565b50565b606060006001600160a01b038416600114801590610e1e5750610e1c85856114a6565b155b15610e4757604051637c84ecfb60e01b81526001600160a01b0385166004820152602401610190565b82600003610e685760405163f725081760e01b815260040160405180910390fd5b826001600160401b03811115610e8057610e80611e61565b604051908082528060200260200182016040528015610ea9578160200160208202803683370190505b506001600160a01b03808616600090815260208890526040812054929450911691505b6001600160a01b03821615801590610eee57506001600160a01b038216600114155b8015610ef957508381105b15610f535781838281518110610f1157610f11611fd4565b6001600160a01b039283166020918202929092018101919091529281166000908152928790526040909220549091169080610f4b81612000565b915050610ecc565b6001600160a01b038216600114801590610f6d5750600081115b15610f995782610f7e600183612019565b81518110610f8e57610f8e611fd4565b602002602001015191505b80835250935093915050565b600080516020612108833981519152610fbe818561169c565b6040516306d61fe760e41b81526001600160a01b03851690636d61fe7090610fec908690869060040161202c565b600060405180830381600087803b15801561100657600080fd5b505af115801561101a573d6000803e3d6000fd5b5050505050505050565b6000805160206120e8833981519152610fbe818561169c565b600061104c6004828486611c10565b61105591612040565b905060008383600481811061106c5761106c611fd4565b909101356001600160f81b03191691506000905061108d8460058188611c10565b8080601f0160208091040260200160405190810160405280939291908181526020018383808284376000920191909152509293506110d092508591506117729050565b1561111d5760405162461bcd60e51b815260206004820152601e60248201527f46756e6374696f6e2073656c6563746f7220616c7265616479207573656400006044820152606401610190565b6040805180820182526001600160a01b038881168083526001600160f81b0319861660208085019182526001600160e01b0319891660009081526000805160206120c883398151915290915285902093518454915160f81c600160a01b026001600160a81b03199092169316929092179190911790915590516306d61fe760e41b8152636d61fe70906111b4908490600401611b4c565b600060405180830381600087803b1580156111ce57600080fd5b505af11580156111e2573d6000803e3d6000fd5b50505050505050505050565b60008051602061210883398151915260008061120c85850186611e77565b909250905061121c8383886117a6565b604051638a91b0e360e01b81526001600160a01b03871690638a91b0e3906111b4908490600401611b4c565b6000805160206120e883398151915260008061120c85850186611e77565b60006112756004828486611c10565b61127e91612040565b9050600061128f8360048187611c10565b8080601f0160208091040260200160405190810160405280939291908181526020018383808284376000920191909152509293506112d292508491506117729050565b61131e5760405162461bcd60e51b815260206004820152601a60248201527f46756e6374696f6e2073656c6563746f72206e6f7420757365640000000000006044820152606401610190565b6001600160e01b0319821660009081526000805160206120c883398151915260209081526040918290208251808401909352546001600160a01b03808216808552600160a01b90920460f81b6001600160f81b03191692840192909252908716146113de5760405162461bcd60e51b815260206004820152602a60248201527f46756e6374696f6e2073656c6563746f72206e6f74207573656420627920746860448201526934b9903430b7323632b960b11b6064820152608401610190565b60208181015160408051808201825260008082528185018181526001600160e01b0319891682526000805160206120c883398151915290955282902090518154945160f81c600160a01b026001600160a81b03199095166001600160a01b039182161794909417905551638a91b0e360e01b81529091881690638a91b0e39061146b908690600401611b4c565b600060405180830381600087803b15801561148557600080fd5b505af1158015611499573d6000803e3d6000fd5b5050505050505050505050565b600060016001600160a01b03831614801590610da55750506001600160a01b03908116600090815260209290925260409091205416151590565b606081806001600160401b038111156114fb576114fb611e61565b60405190808252806020026020018201604052801561152e57816020015b60608152602001906001900390816115195790505b50915060005b818110156115b0573685858381811061154f5761154f611fd4565b90506020028101906115619190612076565b905061158a611573602083018361208c565b60208301356115856040850185611f5c565b611609565b84838151811061159c5761159c611fd4565b602090810291909101015250600101611534565b505092915050565b60008036816115ca6014828789611c10565b6115d391611c3a565b60601c93506115e6603460148789611c10565b6115ef916120a9565b92506115fe8560348189611c10565b949793965094505050565b60405181838237600038838387895af1611626573d6000823e3d81fd5b3d8152602081013d6000823e3d01604052949350505050565b60016000908152602082905260409020546001600160a01b031615611677576040516329e42f3360e11b815260040160405180910390fd5b60016000818152602092909252604090912080546001600160a01b0319169091179055565b6001600160a01b03811615806116bb57506001600160a01b0381166001145b156116e457604051637c84ecfb60e01b81526001600160a01b0382166004820152602401610190565b6001600160a01b03818116600090815260208490526040902054161561172857604051631034f46960e21b81526001600160a01b0382166004820152602401610190565b60016000818152602093909352604080842080546001600160a01b039485168087529286208054959091166001600160a01b03199586161790559190935280549091169091179055565b6001600160e01b03191660009081526000805160206120c883398151915260205260409020546001600160a01b0316151590565b6001600160a01b03811615806117c557506001600160a01b0381166001145b156117ee57604051637c84ecfb60e01b81526001600160a01b0383166004820152602401610190565b6001600160a01b0382811660009081526020859052604090205481169082161461183657604051637c84ecfb60e01b81526001600160a01b0382166004820152602401610190565b6001600160a01b0390811660008181526020949094526040808520805494841686529085208054949093166001600160a01b0319948516179092559092528154169055565b6001600160a01b0381168114610df657600080fd5b8035610d858161187b565b60008083601f8401126118ad57600080fd5b5081356001600160401b038111156118c457600080fd5b60208301915083602082850101111561082e57600080fd5b600080600080606085870312156118f257600080fd5b8435935060208501356119048161187b565b925060408501356001600160401b0381111561191f57600080fd5b61192b8782880161189b565b95989497509550505050565b60008060006040848603121561194c57600080fd5b8335925060208401356001600160401b0381111561196957600080fd5b6119758682870161189b565b9497909650939450505050565b6000610120828403121561199557600080fd5b50919050565b6000806000606084860312156119b057600080fd5b83356001600160401b038111156119c657600080fd5b6119d286828701611982565b9660208601359650604090950135949350505050565b600080602083850312156119fb57600080fd5b82356001600160401b03811115611a1157600080fd5b611a1d8582860161189b565b90969095509350505050565b60008060408385031215611a3c57600080fd5b8235611a478161187b565b946020939093013593505050565b6040808252835190820181905260009060208501906060840190835b81811015611a985783516001600160a01b0316835260209384019390920191600101611a71565b50506001600160a01b039490941660209390930192909252509092915050565b60008060408385031215611acb57600080fd5b82356001600160401b03811115611ae157600080fd5b611aed85828601611982565b95602094909401359450505050565b60005b83811015611b17578181015183820152602001611aff565b50506000910152565b60008151808452611b38816020860160208601611afc565b601f01601f19169290920160200192915050565b602081526000610da56020830184611b20565b600060208284031215611b7157600080fd5b5035919050565b6000602082016020835280845180835260408501915060408160051b86010192506020860160005b82811015611bd157603f19878603018452611bbc858351611b20565b94506020938401939190910190600101611ba0565b50929695505050505050565b6001600160e01b031981168114610df657600080fd5b600060208284031215611c0557600080fd5b8135610da581611bdd565b60008085851115611c2057600080fd5b83861115611c2d57600080fd5b5050820193919092039150565b80356bffffffffffffffffffffffff198116906014841015611c80576bffffffffffffffffffffffff196bffffffffffffffffffffffff198560140360031b1b82161691505b5092915050565b81835281816020850137506000828201602090810191909152601f909101601f19169091010190565b60018060a01b0385168152836020820152606060408201526000611cd8606083018486611c87565b9695505050505050565b600060208284031215611cf457600080fd5b8151610da581611bdd565b6000808335601e19843603018112611d1657600080fd5b83016020810192503590506001600160401b03811115611d3557600080fd5b80360382131561082e57600080fd5b60408152611d6560408201611d5885611890565b6001600160a01b03169052565b602083013560608201526000611d7e6040850185611cff565b6101206080850152611d9561016085018284611c87565b915050611da56060860186611cff565b848303603f190160a0860152611dbc838284611c87565b608088013560c08781019190915260a089013560e08089019190915290890135610100880152909350611df492508701905086611cff565b848303603f1901610120860152611e0c838284611c87565b92505050611e1e610100860186611cff565b848303603f1901610140860152611e36838284611c87565b93505050508260208301529392505050565b600060208284031215611e5a57600080fd5b5051919050565b634e487b7160e01b600052604160045260246000fd5b60008060408385031215611e8a57600080fd5b8235611e958161187b565b915060208301356001600160401b03811115611eb057600080fd5b8301601f81018513611ec157600080fd5b80356001600160401b03811115611eda57611eda611e61565b604051601f8201601f19908116603f011681016001600160401b0381118282101715611f0857611f08611e61565b604052818152828201602001871015611f2057600080fd5b816020840160208301376000602083830101528093505050509250929050565b60008251611f52818460208701611afc565b9190910192915050565b6000808335601e19843603018112611f7357600080fd5b8301803591506001600160401b03821115611f8d57600080fd5b60200191503681900382131561082e57600080fd5b8183823760009101908152919050565b600060208284031215611fc457600080fd5b81518015158114610da557600080fd5b634e487b7160e01b600052603260045260246000fd5b634e487b7160e01b600052601160045260246000fd5b60006001820161201257612012611fea565b5060010190565b8181038181111561052557610525611fea565b6020815260006105a8602083018486611c87565b80356001600160e01b03198116906004841015611c80576001600160e01b031960049490940360031b84901b1690921692915050565b60008235605e19833603018112611f5257600080fd5b60006020828403121561209e57600080fd5b8135610da58161187b565b8035602083101561052557600019602084900360031b1b169291505056fef88ce1fdb7fb1cbd3282e49729100fa3f2d6ee9f797961fe4fb1871cea89ea04f88ce1fdb7fb1cbd3282e49729100fa3f2d6ee9f797961fe4fb1871cea89ea03f88ce1fdb7fb1cbd3282e49729100fa3f2d6ee9f797961fe4fb1871cea89ea02a2646970667358221220a273932d0f9e8207b9a4237cdb469f9fe46b2b0340cac75b92ffae180effbaa864736f6c634300081a0033","linkReferences":{}},"methodIdentifiers":{"accountId()":"9cfd7cff","entryPoint()":"b0d691fe","execute(bytes32,bytes)":"e9ae5c53","executeFromExecutor(bytes32,bytes)":"d691c964","executeUserOp((address,uint256,bytes,bytes,bytes32,uint256,bytes32,bytes,bytes),bytes32)":"8dd7712f","getActiveFallbackHandler(bytes4)":"eac9b20d","getExecutorsPaginated(address,uint256)":"ea5f61d0","getValidatorsPaginated(address,uint256)":"5faac46b","initializeAccount(bytes)":"4b6a1419","installModule(uint256,address,bytes)":"9517e29f","isModuleInstalled(uint256,address,bytes)":"112d3a7d","isValidSignature(bytes32,bytes)":"1626ba7e","supportsExecutionMode(bytes32)":"d03c7914","supportsModule(uint256)":"f2dc691d","uninstallModule(uint256,address,bytes)":"a71763a8","validateUserOp((address,uint256,bytes,bytes,bytes32,uint256,bytes32,bytes,bytes),bytes32,uint256)":"19822f7c"},"id":68}